{
  "_format": "hh-sol-artifact-1",
  "contractName": "SoulboundToken",
  "sourceName": "contracts/SoulBoundToken.sol",
  "abi": [
    {
      "inputs": [],
      "stateMutability": "nonpayable",
      "type": "constructor"
    },
    {
      "inputs": [
        {
          "internalType": "address",
          "name": "sender",
          "type": "address"
        },
        {
          "internalType": "uint256",
          "name": "tokenId",
          "type": "uint256"
        },
        {
          "internalType": "address",
          "name": "owner",
          "type": "address"
        }
      ],
      "name": "ERC721IncorrectOwner",
      "type": "error"
    },
    {
      "inputs": [
        {
          "internalType": "address",
          "name": "operator",
          "type": "address"
        },
        {
          "internalType": "uint256",
          "name": "tokenId",
          "type": "uint256"
        }
      ],
      "name": "ERC721InsufficientApproval",
      "type": "error"
    },
    {
      "inputs": [
        {
          "internalType": "address",
          "name": "approver",
          "type": "address"
        }
      ],
      "name": "ERC721InvalidApprover",
      "type": "error"
    },
    {
      "inputs": [
        {
          "internalType": "address",
          "name": "operator",
          "type": "address"
        }
      ],
      "name": "ERC721InvalidOperator",
      "type": "error"
    },
    {
      "inputs": [
        {
          "internalType": "address",
          "name": "owner",
          "type": "address"
        }
      ],
      "name": "ERC721InvalidOwner",
      "type": "error"
    },
    {
      "inputs": [
        {
          "internalType": "address",
          "name": "receiver",
          "type": "address"
        }
      ],
      "name": "ERC721InvalidReceiver",
      "type": "error"
    },
    {
      "inputs": [
        {
          "internalType": "address",
          "name": "sender",
          "type": "address"
        }
      ],
      "name": "ERC721InvalidSender",
      "type": "error"
    },
    {
      "inputs": [
        {
          "internalType": "uint256",
          "name": "tokenId",
          "type": "uint256"
        }
      ],
      "name": "ERC721NonexistentToken",
      "type": "error"
    },
    {
      "inputs": [
        {
          "internalType": "address",
          "name": "owner",
          "type": "address"
        }
      ],
      "name": "OwnableInvalidOwner",
      "type": "error"
    },
    {
      "inputs": [
        {
          "internalType": "address",
          "name": "account",
          "type": "address"
        }
      ],
      "name": "OwnableUnauthorizedAccount",
      "type": "error"
    },
    {
      "anonymous": false,
      "inputs": [
        {
          "indexed": true,
          "internalType": "address",
          "name": "owner",
          "type": "address"
        },
        {
          "indexed": true,
          "internalType": "address",
          "name": "approved",
          "type": "address"
        },
        {
          "indexed": true,
          "internalType": "uint256",
          "name": "tokenId",
          "type": "uint256"
        }
      ],
      "name": "Approval",
      "type": "event"
    },
    {
      "anonymous": false,
      "inputs": [
        {
          "indexed": true,
          "internalType": "address",
          "name": "owner",
          "type": "address"
        },
        {
          "indexed": true,
          "internalType": "address",
          "name": "operator",
          "type": "address"
        },
        {
          "indexed": false,
          "internalType": "bool",
          "name": "approved",
          "type": "bool"
        }
      ],
      "name": "ApprovalForAll",
      "type": "event"
    },
    {
      "anonymous": false,
      "inputs": [
        {
          "indexed": false,
          "internalType": "uint256",
          "name": "_fromTokenId",
          "type": "uint256"
        },
        {
          "indexed": false,
          "internalType": "uint256",
          "name": "_toTokenId",
          "type": "uint256"
        }
      ],
      "name": "BatchMetadataUpdate",
      "type": "event"
    },
    {
      "anonymous": false,
      "inputs": [
        {
          "indexed": false,
          "internalType": "uint256",
          "name": "_tokenId",
          "type": "uint256"
        }
      ],
      "name": "MetadataUpdate",
      "type": "event"
    },
    {
      "anonymous": false,
      "inputs": [
        {
          "indexed": true,
          "internalType": "address",
          "name": "previousOwner",
          "type": "address"
        },
        {
          "indexed": true,
          "internalType": "address",
          "name": "newOwner",
          "type": "address"
        }
      ],
      "name": "OwnershipTransferred",
      "type": "event"
    },
    {
      "anonymous": false,
      "inputs": [
        {
          "indexed": true,
          "internalType": "address",
          "name": "from",
          "type": "address"
        },
        {
          "indexed": true,
          "internalType": "address",
          "name": "to",
          "type": "address"
        },
        {
          "indexed": true,
          "internalType": "uint256",
          "name": "tokenId",
          "type": "uint256"
        }
      ],
      "name": "Transfer",
      "type": "event"
    },
    {
      "inputs": [
        {
          "internalType": "address",
          "name": "to",
          "type": "address"
        },
        {
          "internalType": "uint256",
          "name": "tokenId",
          "type": "uint256"
        }
      ],
      "name": "approve",
      "outputs": [],
      "stateMutability": "nonpayable",
      "type": "function"
    },
    {
      "inputs": [
        {
          "internalType": "address",
          "name": "owner",
          "type": "address"
        }
      ],
      "name": "balanceOf",
      "outputs": [
        {
          "internalType": "uint256",
          "name": "",
          "type": "uint256"
        }
      ],
      "stateMutability": "view",
      "type": "function"
    },
    {
      "inputs": [
        {
          "internalType": "uint256",
          "name": "tokenId",
          "type": "uint256"
        }
      ],
      "name": "getApproved",
      "outputs": [
        {
          "internalType": "address",
          "name": "",
          "type": "address"
        }
      ],
      "stateMutability": "view",
      "type": "function"
    },
    {
      "inputs": [
        {
          "internalType": "address",
          "name": "owner",
          "type": "address"
        },
        {
          "internalType": "address",
          "name": "operator",
          "type": "address"
        }
      ],
      "name": "isApprovedForAll",
      "outputs": [
        {
          "internalType": "bool",
          "name": "",
          "type": "bool"
        }
      ],
      "stateMutability": "view",
      "type": "function"
    },
    {
      "inputs": [
        {
          "internalType": "address",
          "name": "recipient",
          "type": "address"
        },
        {
          "internalType": "string",
          "name": "tokenURI",
          "type": "string"
        }
      ],
      "name": "mint",
      "outputs": [
        {
          "internalType": "uint256",
          "name": "",
          "type": "uint256"
        }
      ],
      "stateMutability": "nonpayable",
      "type": "function"
    },
    {
      "inputs": [],
      "name": "name",
      "outputs": [
        {
          "internalType": "string",
          "name": "",
          "type": "string"
        }
      ],
      "stateMutability": "view",
      "type": "function"
    },
    {
      "inputs": [],
      "name": "owner",
      "outputs": [
        {
          "internalType": "address",
          "name": "",
          "type": "address"
        }
      ],
      "stateMutability": "view",
      "type": "function"
    },
    {
      "inputs": [
        {
          "internalType": "uint256",
          "name": "tokenId",
          "type": "uint256"
        }
      ],
      "name": "ownerOf",
      "outputs": [
        {
          "internalType": "address",
          "name": "",
          "type": "address"
        }
      ],
      "stateMutability": "view",
      "type": "function"
    },
    {
      "inputs": [],
      "name": "renounceOwnership",
      "outputs": [],
      "stateMutability": "nonpayable",
      "type": "function"
    },
    {
      "inputs": [
        {
          "internalType": "address",
          "name": "from",
          "type": "address"
        },
        {
          "internalType": "address",
          "name": "to",
          "type": "address"
        },
        {
          "internalType": "uint256",
          "name": "tokenId",
          "type": "uint256"
        }
      ],
      "name": "safeTransferFrom",
      "outputs": [],
      "stateMutability": "nonpayable",
      "type": "function"
    },
    {
      "inputs": [
        {
          "internalType": "address",
          "name": "from",
          "type": "address"
        },
        {
          "internalType": "address",
          "name": "to",
          "type": "address"
        },
        {
          "internalType": "uint256",
          "name": "tokenId",
          "type": "uint256"
        },
        {
          "internalType": "bytes",
          "name": "data",
          "type": "bytes"
        }
      ],
      "name": "safeTransferFrom",
      "outputs": [],
      "stateMutability": "nonpayable",
      "type": "function"
    },
    {
      "inputs": [
        {
          "internalType": "address",
          "name": "operator",
          "type": "address"
        },
        {
          "internalType": "bool",
          "name": "approved",
          "type": "bool"
        }
      ],
      "name": "setApprovalForAll",
      "outputs": [],
      "stateMutability": "nonpayable",
      "type": "function"
    },
    {
      "inputs": [
        {
          "internalType": "bytes4",
          "name": "interfaceId",
          "type": "bytes4"
        }
      ],
      "name": "supportsInterface",
      "outputs": [
        {
          "internalType": "bool",
          "name": "",
          "type": "bool"
        }
      ],
      "stateMutability": "view",
      "type": "function"
    },
    {
      "inputs": [],
      "name": "symbol",
      "outputs": [
        {
          "internalType": "string",
          "name": "",
          "type": "string"
        }
      ],
      "stateMutability": "view",
      "type": "function"
    },
    {
      "inputs": [
        {
          "internalType": "uint256",
          "name": "tokenId",
          "type": "uint256"
        }
      ],
      "name": "tokenURI",
      "outputs": [
        {
          "internalType": "string",
          "name": "",
          "type": "string"
        }
      ],
      "stateMutability": "view",
      "type": "function"
    },
    {
      "inputs": [
        {
          "internalType": "address",
          "name": "from",
          "type": "address"
        },
        {
          "internalType": "address",
          "name": "to",
          "type": "address"
        },
        {
          "internalType": "uint256",
          "name": "tokenId",
          "type": "uint256"
        }
      ],
      "name": "transferFrom",
      "outputs": [],
      "stateMutability": "nonpayable",
      "type": "function"
    },
    {
      "inputs": [
        {
          "internalType": "address",
          "name": "newOwner",
          "type": "address"
        }
      ],
      "name": "transferOwnership",
      "outputs": [],
      "stateMutability": "nonpayable",
      "type": "function"
    }
  ],
  "bytecode": "0x60806040523480156200001157600080fd5b50336040518060400160405280600881526020017f536b696c6c5342540000000000000000000000000000000000000000000000008152506040518060400160405280600581526020017f534b494c4c000000000000000000000000000000000000000000000000000000815250816000908162000090919062000472565b508060019081620000a2919062000472565b505050600073ffffffffffffffffffffffffffffffffffffffff168173ffffffffffffffffffffffffffffffffffffffff16036200011a5760006040517f1e4fbdf70000000000000000000000000000000000000000000000000000000081526004016200011191906200059e565b60405180910390fd5b6200012b816200013260201b60201c565b50620005bb565b6000600760009054906101000a900473ffffffffffffffffffffffffffffffffffffffff16905081600760006101000a81548173ffffffffffffffffffffffffffffffffffffffff021916908373ffffffffffffffffffffffffffffffffffffffff1602179055508173ffffffffffffffffffffffffffffffffffffffff168173ffffffffffffffffffffffffffffffffffffffff167f8be0079c531659141344cd1fd0a4f28419497f9722a3daafe3b4186f6b6457e060405160405180910390a35050565b600081519050919050565b7f4e487b7100000000000000000000000000000000000000000000000000000000600052604160045260246000fd5b7f4e487b7100000000000000000000000000000000000000000000000000000000600052602260045260246000fd5b600060028204905060018216806200027a57607f821691505b60208210810362000290576200028f62000232565b5b50919050565b60008190508160005260206000209050919050565b60006020601f8301049050919050565b600082821b905092915050565b600060088302620002fa7fffffffffffffffffffffffffffffffffffffffffffffffffffffffffffffffff82620002bb565b620003068683620002bb565b95508019841693508086168417925050509392505050565b6000819050919050565b6000819050919050565b6000620003536200034d62000347846200031e565b62000328565b6200031e565b9050919050565b6000819050919050565b6200036f8362000332565b620003876200037e826200035a565b848454620002c8565b825550505050565b600090565b6200039e6200038f565b620003ab81848462000364565b505050565b5b81811015620003d357620003c760008262000394565b600181019050620003b1565b5050565b601f8211156200042257620003ec8162000296565b620003f784620002ab565b8101602085101562000407578190505b6200041f6200041685620002ab565b830182620003b0565b50505b505050565b600082821c905092915050565b6000620004476000198460080262000427565b1980831691505092915050565b600062000462838362000434565b9150826002028217905092915050565b6200047d82620001f8565b67ffffffffffffffff81111562000499576200049862000203565b5b620004a5825462000261565b620004b2828285620003d7565b600060209050601f831160018114620004ea5760008415620004d5578287015190505b620004e1858262000454565b86555062000551565b601f198416620004fa8662000296565b60005b828110156200052457848901518255600182019150602085019450602081019050620004fd565b8683101562000544578489015162000540601f89168262000434565b8355505b6001600288020188555050505b505050505050565b600073ffffffffffffffffffffffffffffffffffffffff82169050919050565b6000620005868262000559565b9050919050565b620005988162000579565b82525050565b6000602082019050620005b560008301846200058d565b92915050565b61287880620005cb6000396000f3fe608060405234801561001057600080fd5b506004361061010b5760003560e01c8063715018a6116100a2578063b88d4fde11610071578063b88d4fde146102a4578063c87b56dd146102c0578063d0def521146102f0578063e985e9c514610320578063f2fde38b146103505761010b565b8063715018a6146102425780638da5cb5b1461024c57806395d89b411461026a578063a22cb465146102885761010b565b806323b872dd116100de57806323b872dd146101aa57806342842e0e146101c65780636352211e146101e257806370a08231146102125761010b565b806301ffc9a71461011057806306fdde0314610140578063081812fc1461015e578063095ea7b31461018e575b600080fd5b61012a60048036038101906101259190611bac565b61036c565b6040516101379190611bf4565b60405180910390f35b6101486103cd565b6040516101559190611c9f565b60405180910390f35b61017860048036038101906101739190611cf7565b61045f565b6040516101859190611d65565b60405180910390f35b6101a860048036038101906101a39190611dac565b61047b565b005b6101c460048036038101906101bf9190611dec565b610491565b005b6101e060048036038101906101db9190611dec565b610593565b005b6101fc60048036038101906101f79190611cf7565b6105b3565b6040516102099190611d65565b60405180910390f35b61022c60048036038101906102279190611e3f565b6105c5565b6040516102399190611e7b565b60405180910390f35b61024a61067f565b005b610254610693565b6040516102619190611d65565b60405180910390f35b6102726106bd565b60405161027f9190611c9f565b60405180910390f35b6102a2600480360381019061029d9190611ec2565b61074f565b005b6102be60048036038101906102b99190612037565b610765565b005b6102da60048036038101906102d59190611cf7565b61078a565b6040516102e79190611c9f565b60405180910390f35b61030a6004803603810190610305919061215b565b61089d565b6040516103179190611e7b565b60405180910390f35b61033a600480360381019061033591906121b7565b6108dc565b6040516103479190611bf4565b60405180910390f35b61036a60048036038101906103659190611e3f565b610970565b005b6000634906490660e01b7bffffffffffffffffffffffffffffffffffffffffffffffffffffffff1916827bffffffffffffffffffffffffffffffffffffffffffffffffffffffff191614806103c657506103c5826109f6565b5b9050919050565b6060600080546103dc90612226565b80601f016020809104026020016040519081016040528092919081815260200182805461040890612226565b80156104555780601f1061042a57610100808354040283529160200191610455565b820191906000526020600020905b81548152906001019060200180831161043857829003601f168201915b5050505050905090565b600061046a82610ad8565b5061047482610b60565b9050919050565b61048d8282610488610b9d565b610ba5565b5050565b600073ffffffffffffffffffffffffffffffffffffffff168273ffffffffffffffffffffffffffffffffffffffff16036105035760006040517f64a0ae920000000000000000000000000000000000000000000000000000000081526004016104fa9190611d65565b60405180910390fd5b60006105178383610512610b9d565b610bb7565b90508373ffffffffffffffffffffffffffffffffffffffff168173ffffffffffffffffffffffffffffffffffffffff161461058d578382826040517f64283d7b00000000000000000000000000000000000000000000000000000000815260040161058493929190612257565b60405180910390fd5b50505050565b6105ae83838360405180602001604052806000815250610765565b505050565b60006105be82610ad8565b9050919050565b60008073ffffffffffffffffffffffffffffffffffffffff168273ffffffffffffffffffffffffffffffffffffffff16036106385760006040517f89c62b6400000000000000000000000000000000000000000000000000000000815260040161062f9190611d65565b60405180910390fd5b600360008373ffffffffffffffffffffffffffffffffffffffff1673ffffffffffffffffffffffffffffffffffffffff168152602001908152602001600020549050919050565b610687610c90565b6106916000610d17565b565b6000600760009054906101000a900473ffffffffffffffffffffffffffffffffffffffff16905090565b6060600180546106cc90612226565b80601f01602080910402602001604051908101604052809291908181526020018280546106f890612226565b80156107455780601f1061071a57610100808354040283529160200191610745565b820191906000526020600020905b81548152906001019060200180831161072857829003601f168201915b5050505050905090565b61076161075a610b9d565b8383610ddd565b5050565b610770848484610491565b61078461077b610b9d565b85858585610f4c565b50505050565b606061079582610ad8565b5060006006600084815260200190815260200160002080546107b690612226565b80601f01602080910402602001604051908101604052809291908181526020018280546107e290612226565b801561082f5780601f106108045761010080835404028352916020019161082f565b820191906000526020600020905b81548152906001019060200180831161081257829003601f168201915b5050505050905060006108406110fd565b90506000815103610855578192505050610898565b60008251111561088a5780826040516020016108729291906122ca565b60405160208183030381529060405292505050610898565b61089384611114565b925050505b919050565b6000600860008154809291906108b29061231d565b9190505550600060085490506108c8848261117d565b6108d2818461119b565b8091505092915050565b6000600560008473ffffffffffffffffffffffffffffffffffffffff1673ffffffffffffffffffffffffffffffffffffffff16815260200190815260200160002060008373ffffffffffffffffffffffffffffffffffffffff1673ffffffffffffffffffffffffffffffffffffffff16815260200190815260200160002060009054906101000a900460ff16905092915050565b610978610c90565b600073ffffffffffffffffffffffffffffffffffffffff168173ffffffffffffffffffffffffffffffffffffffff16036109ea5760006040517f1e4fbdf70000000000000000000000000000000000000000000000000000000081526004016109e19190611d65565b60405180910390fd5b6109f381610d17565b50565b60007f80ac58cd000000000000000000000000000000000000000000000000000000007bffffffffffffffffffffffffffffffffffffffffffffffffffffffff1916827bffffffffffffffffffffffffffffffffffffffffffffffffffffffff19161480610ac157507f5b5e139f000000000000000000000000000000000000000000000000000000007bffffffffffffffffffffffffffffffffffffffffffffffffffffffff1916827bffffffffffffffffffffffffffffffffffffffffffffffffffffffff1916145b80610ad15750610ad0826111f7565b5b9050919050565b600080610ae483611261565b9050600073ffffffffffffffffffffffffffffffffffffffff168173ffffffffffffffffffffffffffffffffffffffff1603610b5757826040517f7e273289000000000000000000000000000000000000000000000000000000008152600401610b4e9190611e7b565b60405180910390fd5b80915050919050565b60006004600083815260200190815260200160002060009054906101000a900473ffffffffffffffffffffffffffffffffffffffff169050919050565b600033905090565b610bb2838383600161129e565b505050565b6000600854831015610c3757600073ffffffffffffffffffffffffffffffffffffffff168473ffffffffffffffffffffffffffffffffffffffff1614610c32576040517f08c379a0000000000000000000000000000000000000000000000000000000008152600401610c29906123d7565b60405180910390fd5b610c7c565b6008548314610c7b576040517f08c379a0000000000000000000000000000000000000000000000000000000008152600401610c7290612469565b60405180910390fd5b5b610c87848484611463565b90509392505050565b610c98610b9d565b73ffffffffffffffffffffffffffffffffffffffff16610cb6610693565b73ffffffffffffffffffffffffffffffffffffffff1614610d1557610cd9610b9d565b6040517f118cdaa7000000000000000000000000000000000000000000000000000000008152600401610d0c9190611d65565b60405180910390fd5b565b6000600760009054906101000a900473ffffffffffffffffffffffffffffffffffffffff16905081600760006101000a81548173ffffffffffffffffffffffffffffffffffffffff021916908373ffffffffffffffffffffffffffffffffffffffff1602179055508173ffffffffffffffffffffffffffffffffffffffff168173ffffffffffffffffffffffffffffffffffffffff167f8be0079c531659141344cd1fd0a4f28419497f9722a3daafe3b4186f6b6457e060405160405180910390a35050565b600073ffffffffffffffffffffffffffffffffffffffff168273ffffffffffffffffffffffffffffffffffffffff1603610e4e57816040517f5b08ba18000000000000000000000000000000000000000000000000000000008152600401610e459190611d65565b60405180910390fd5b80600560008573ffffffffffffffffffffffffffffffffffffffff1673ffffffffffffffffffffffffffffffffffffffff16815260200190815260200160002060008473ffffffffffffffffffffffffffffffffffffffff1673ffffffffffffffffffffffffffffffffffffffff16815260200190815260200160002060006101000a81548160ff0219169083151502179055508173ffffffffffffffffffffffffffffffffffffffff168373ffffffffffffffffffffffffffffffffffffffff167f17307eab39ab6107e8899845ad3d59bd9653f200f220920489ca2b5937696c3183604051610f3f9190611bf4565b60405180910390a3505050565b60008373ffffffffffffffffffffffffffffffffffffffff163b11156110f6578273ffffffffffffffffffffffffffffffffffffffff1663150b7a02868685856040518563ffffffff1660e01b8152600401610fab94939291906124de565b6020604051808303816000875af1925050508015610fe757506040513d601f19601f82011682018060405250810190610fe4919061253f565b60015b61106b573d8060008114611017576040519150601f19603f3d011682016040523d82523d6000602084013e61101c565b606091505b50600081510361106357836040517f64a0ae9200000000000000000000000000000000000000000000000000000000815260040161105a9190611d65565b60405180910390fd5b805181602001fd5b63150b7a0260e01b7bffffffffffffffffffffffffffffffffffffffffffffffffffffffff1916817bffffffffffffffffffffffffffffffffffffffffffffffffffffffff1916146110f457836040517f64a0ae920000000000000000000000000000000000000000000000000000000081526004016110eb9190611d65565b60405180910390fd5b505b5050505050565b606060405180602001604052806000815250905090565b606061111f82610ad8565b50600061112a6110fd565b9050600081511161114a5760405180602001604052806000815250611175565b806111548461167d565b6040516020016111659291906122ca565b6040516020818303038152906040525b915050919050565b61119782826040518060200160405280600081525061174b565b5050565b806006600084815260200190815260200160002090816111bb9190612718565b507ff8e1a15aba9398e019f0b49df1a4fde98ee17ae345cb5f6b5e2c27f5033e8ce7826040516111eb9190611e7b565b60405180910390a15050565b60007f01ffc9a7000000000000000000000000000000000000000000000000000000007bffffffffffffffffffffffffffffffffffffffffffffffffffffffff1916827bffffffffffffffffffffffffffffffffffffffffffffffffffffffff1916149050919050565b60006002600083815260200190815260200160002060009054906101000a900473ffffffffffffffffffffffffffffffffffffffff169050919050565b80806112d75750600073ffffffffffffffffffffffffffffffffffffffff168273ffffffffffffffffffffffffffffffffffffffff1614155b1561140b5760006112e784610ad8565b9050600073ffffffffffffffffffffffffffffffffffffffff168373ffffffffffffffffffffffffffffffffffffffff161415801561135257508273ffffffffffffffffffffffffffffffffffffffff168173ffffffffffffffffffffffffffffffffffffffff1614155b8015611365575061136381846108dc565b155b156113a757826040517fa9fbf51f00000000000000000000000000000000000000000000000000000000815260040161139e9190611d65565b60405180910390fd5b811561140957838573ffffffffffffffffffffffffffffffffffffffff168273ffffffffffffffffffffffffffffffffffffffff167f8c5be1e5ebec7d5bd14f71427d1e84f3dd0314c0f7b2291e5b200ac8c7c3b92560405160405180910390a45b505b836004600085815260200190815260200160002060006101000a81548173ffffffffffffffffffffffffffffffffffffffff021916908373ffffffffffffffffffffffffffffffffffffffff16021790555050505050565b60008061146f84611261565b9050600073ffffffffffffffffffffffffffffffffffffffff168373ffffffffffffffffffffffffffffffffffffffff16146114b1576114b081848661176f565b5b600073ffffffffffffffffffffffffffffffffffffffff168173ffffffffffffffffffffffffffffffffffffffff1614611542576114f360008560008061129e565b6001600360008373ffffffffffffffffffffffffffffffffffffffff1673ffffffffffffffffffffffffffffffffffffffff168152602001908152602001600020600082825403925050819055505b600073ffffffffffffffffffffffffffffffffffffffff168573ffffffffffffffffffffffffffffffffffffffff16146115c5576001600360008773ffffffffffffffffffffffffffffffffffffffff1673ffffffffffffffffffffffffffffffffffffffff168152602001908152602001600020600082825401925050819055505b846002600086815260200190815260200160002060006101000a81548173ffffffffffffffffffffffffffffffffffffffff021916908373ffffffffffffffffffffffffffffffffffffffff160217905550838573ffffffffffffffffffffffffffffffffffffffff168273ffffffffffffffffffffffffffffffffffffffff167fddf252ad1be2c89b69c2b068fc378daa952ba7f163c4a11628f55a4df523b3ef60405160405180910390a4809150509392505050565b60606000600161168c84611833565b01905060008167ffffffffffffffff8111156116ab576116aa611f0c565b5b6040519080825280601f01601f1916602001820160405280156116dd5781602001600182028036833780820191505090505b509050600082602001820190505b600115611740578080600190039150507f3031323334353637383961626364656600000000000000000000000000000000600a86061a8153600a8581611734576117336127ea565b5b049450600085036116eb575b819350505050919050565b6117558383611986565b61176a611760610b9d565b6000858585610f4c565b505050565b61177a838383611a7f565b61182e57600073ffffffffffffffffffffffffffffffffffffffff168373ffffffffffffffffffffffffffffffffffffffff16036117ef57806040517f7e2732890000000000000000000000000000000000000000000000000000000081526004016117e69190611e7b565b60405180910390fd5b81816040517f177e802f000000000000000000000000000000000000000000000000000000008152600401611825929190612819565b60405180910390fd5b505050565b600080600090507a184f03e93ff9f4daa797ed6e38ed64bf6a1f0100000000000000008310611891577a184f03e93ff9f4daa797ed6e38ed64bf6a1f0100000000000000008381611887576118866127ea565b5b0492506040810190505b6d04ee2d6d415b85acef810000000083106118ce576d04ee2d6d415b85acef810000000083816118c4576118c36127ea565b5b0492506020810190505b662386f26fc1000083106118fd57662386f26fc1000083816118f3576118f26127ea565b5b0492506010810190505b6305f5e1008310611926576305f5e100838161191c5761191b6127ea565b5b0492506008810190505b612710831061194b576127108381611941576119406127ea565b5b0492506004810190505b6064831061196e5760648381611964576119636127ea565b5b0492506002810190505b600a831061197d576001810190505b80915050919050565b600073ffffffffffffffffffffffffffffffffffffffff168273ffffffffffffffffffffffffffffffffffffffff16036119f85760006040517f64a0ae920000000000000000000000000000000000000000000000000000000081526004016119ef9190611d65565b60405180910390fd5b6000611a0683836000610bb7565b9050600073ffffffffffffffffffffffffffffffffffffffff168173ffffffffffffffffffffffffffffffffffffffff1614611a7a5760006040517f73c6ac6e000000000000000000000000000000000000000000000000000000008152600401611a719190611d65565b60405180910390fd5b505050565b60008073ffffffffffffffffffffffffffffffffffffffff168373ffffffffffffffffffffffffffffffffffffffff1614158015611b3757508273ffffffffffffffffffffffffffffffffffffffff168473ffffffffffffffffffffffffffffffffffffffff161480611af85750611af784846108dc565b5b80611b3657508273ffffffffffffffffffffffffffffffffffffffff16611b1e83610b60565b73ffffffffffffffffffffffffffffffffffffffff16145b5b90509392505050565b6000604051905090565b600080fd5b600080fd5b60007fffffffff0000000000000000000000000000000000000000000000000000000082169050919050565b611b8981611b54565b8114611b9457600080fd5b50565b600081359050611ba681611b80565b92915050565b600060208284031215611bc257611bc1611b4a565b5b6000611bd084828501611b97565b91505092915050565b60008115159050919050565b611bee81611bd9565b82525050565b6000602082019050611c096000830184611be5565b92915050565b600081519050919050565b600082825260208201905092915050565b60005b83811015611c49578082015181840152602081019050611c2e565b60008484015250505050565b6000601f19601f8301169050919050565b6000611c7182611c0f565b611c7b8185611c1a565b9350611c8b818560208601611c2b565b611c9481611c55565b840191505092915050565b60006020820190508181036000830152611cb98184611c66565b905092915050565b6000819050919050565b611cd481611cc1565b8114611cdf57600080fd5b50565b600081359050611cf181611ccb565b92915050565b600060208284031215611d0d57611d0c611b4a565b5b6000611d1b84828501611ce2565b91505092915050565b600073ffffffffffffffffffffffffffffffffffffffff82169050919050565b6000611d4f82611d24565b9050919050565b611d5f81611d44565b82525050565b6000602082019050611d7a6000830184611d56565b92915050565b611d8981611d44565b8114611d9457600080fd5b50565b600081359050611da681611d80565b92915050565b60008060408385031215611dc357611dc2611b4a565b5b6000611dd185828601611d97565b9250506020611de285828601611ce2565b9150509250929050565b600080600060608486031215611e0557611e04611b4a565b5b6000611e1386828701611d97565b9350506020611e2486828701611d97565b9250506040611e3586828701611ce2565b9150509250925092565b600060208284031215611e5557611e54611b4a565b5b6000611e6384828501611d97565b91505092915050565b611e7581611cc1565b82525050565b6000602082019050611e906000830184611e6c565b92915050565b611e9f81611bd9565b8114611eaa57600080fd5b50565b600081359050611ebc81611e96565b92915050565b60008060408385031215611ed957611ed8611b4a565b5b6000611ee785828601611d97565b9250506020611ef885828601611ead565b9150509250929050565b600080fd5b600080fd5b7f4e487b7100000000000000000000000000000000000000000000000000000000600052604160045260246000fd5b611f4482611c55565b810181811067ffffffffffffffff82111715611f6357611f62611f0c565b5b80604052505050565b6000611f76611b40565b9050611f828282611f3b565b919050565b600067ffffffffffffffff821115611fa257611fa1611f0c565b5b611fab82611c55565b9050602081019050919050565b82818337600083830152505050565b6000611fda611fd584611f87565b611f6c565b905082815260208101848484011115611ff657611ff5611f07565b5b612001848285611fb8565b509392505050565b600082601f83011261201e5761201d611f02565b5b813561202e848260208601611fc7565b91505092915050565b6000806000806080858703121561205157612050611b4a565b5b600061205f87828801611d97565b945050602061207087828801611d97565b935050604061208187828801611ce2565b925050606085013567ffffffffffffffff8111156120a2576120a1611b4f565b5b6120ae87828801612009565b91505092959194509250565b600067ffffffffffffffff8211156120d5576120d4611f0c565b5b6120de82611c55565b9050602081019050919050565b60006120fe6120f9846120ba565b611f6c565b90508281526020810184848401111561211a57612119611f07565b5b612125848285611fb8565b509392505050565b600082601f83011261214257612141611f02565b5b81356121528482602086016120eb565b91505092915050565b6000806040838503121561217257612171611b4a565b5b600061218085828601611d97565b925050602083013567ffffffffffffffff8111156121a1576121a0611b4f565b5b6121ad8582860161212d565b9150509250929050565b600080604083850312156121ce576121cd611b4a565b5b60006121dc85828601611d97565b92505060206121ed85828601611d97565b9150509250929050565b7f4e487b7100000000000000000000000000000000000000000000000000000000600052602260045260246000fd5b6000600282049050600182168061223e57607f821691505b602082108103612251576122506121f7565b5b50919050565b600060608201905061226c6000830186611d56565b6122796020830185611e6c565b6122866040830184611d56565b949350505050565b600081905092915050565b60006122a482611c0f565b6122ae818561228e565b93506122be818560208601611c2b565b80840191505092915050565b60006122d68285612299565b91506122e28284612299565b91508190509392505050565b7f4e487b7100000000000000000000000000000000000000000000000000000000600052601160045260246000fd5b600061232882611cc1565b91507fffffffffffffffffffffffffffffffffffffffffffffffffffffffffffffffff820361235a576123596122ee565b5b600182019050919050565b7f536f756c626f756e64546f6b656e3a205472616e73666572732061726520646960008201527f7361626c65642e00000000000000000000000000000000000000000000000000602082015250565b60006123c1602783611c1a565b91506123cc82612365565b604082019050919050565b600060208201905081810360008301526123f0816123b4565b9050919050565b7f536f756c626f756e64546f6b656e3a20546f6b656e20646f65736e277420657860008201527f6973742e00000000000000000000000000000000000000000000000000000000602082015250565b6000612453602483611c1a565b915061245e826123f7565b604082019050919050565b6000602082019050818103600083015261248281612446565b9050919050565b600081519050919050565b600082825260208201905092915050565b60006124b082612489565b6124ba8185612494565b93506124ca818560208601611c2b565b6124d381611c55565b840191505092915050565b60006080820190506124f36000830187611d56565b6125006020830186611d56565b61250d6040830185611e6c565b818103606083015261251f81846124a5565b905095945050505050565b60008151905061253981611b80565b92915050565b60006020828403121561255557612554611b4a565b5b60006125638482850161252a565b91505092915050565b60008190508160005260206000209050919050565b60006020601f8301049050919050565b600082821b905092915050565b6000600883026125ce7fffffffffffffffffffffffffffffffffffffffffffffffffffffffffffffffff82612591565b6125d88683612591565b95508019841693508086168417925050509392505050565b6000819050919050565b600061261561261061260b84611cc1565b6125f0565b611cc1565b9050919050565b6000819050919050565b61262f836125fa565b61264361263b8261261c565b84845461259e565b825550505050565b600090565b61265861264b565b612663818484612626565b505050565b5b818110156126875761267c600082612650565b600181019050612669565b5050565b601f8211156126cc5761269d8161256c565b6126a684612581565b810160208510156126b5578190505b6126c96126c185612581565b830182612668565b50505b505050565b600082821c905092915050565b60006126ef600019846008026126d1565b1980831691505092915050565b600061270883836126de565b9150826002028217905092915050565b61272182611c0f565b67ffffffffffffffff81111561273a57612739611f0c565b5b6127448254612226565b61274f82828561268b565b600060209050601f8311600181146127825760008415612770578287015190505b61277a85826126fc565b8655506127e2565b601f1984166127908661256c565b60005b828110156127b857848901518255600182019150602085019450602081019050612793565b868310156127d557848901516127d1601f8916826126de565b8355505b6001600288020188555050505b505050505050565b7f4e487b7100000000000000000000000000000000000000000000000000000000600052601260045260246000fd5b600060408201905061282e6000830185611d56565b61283b6020830184611e6c565b939250505056fea26469706673582212207c244f4238c778afcfc51f3c0c4af57d8c54b49e0d0b8bee334fdb6901f31c8c64736f6c63430008140033",
  "linkReferences": {},
  "deployedLinkReferences": {}
}